:020000040800F2
:1000000098190020516400089D0800089F08000806
:10001000A3080008A7080008AB08000800000000BB
:10002000000000000000000000000000AF08000811
:10003000B108000800000000B3080008B508000877
:100040006B6400086B6400086B6400086B64000854
:100050006B6400086B6400086B6400086B64000844
:10006000DB460008634600086B6400086B64000808
:100070006B6400086B6400086B6400086B64000824
:100080006B6400086B6400086B6400086B64000814
:100090006B6400086B6400086B6400086B64000804
:1000A0006B640008DF4000086B6400086B640008A4
:1000B0006B640008114800086B6400086B6400085A
:1000C0006B6400086B6400086B6400086B640008D4
:1000D0006B6400082D4D00086B6400086B64000819
:1000E0006B6400086B6400086B6400086B640008B4
:1000F0006B6400086B6400086B6400086B640008A4
:100100006B6400086B6400086B6400086B64000893
:100110006B6400086B6400086B6400086B64000883
:100120006B6400086B6400086B6400086B64000873
:100130006B6400086B6400086B6400086B64000863
:100140006B6400086B6400086B6400086B64000853
:100150006B6400086B6400086B6400086B64000843
:100160006B6400086B6400086B6400086B64000833
:100170006B6400086B6400086B6400086B64000823
:100180006B6400086B64000800F002F800F072F87D
:100190000AA090E8000C82448344AAF10107DA45E2
:1001A00001D100F067F8AFF2090EBAE80F0013F0C2
:1001B000010F18BFFB1A43F00103184768EA00005B
:1001C00088EA00000A444FF0000C10F8013B13F0DD
:1001D000070408BF10F8014B1D1108BF10F8015BA0
:1001E000641E05D010F8016B641E01F8016BF9D193
:1001F00013F0080F1EBF10F8014BAD1C0C1B09D1EA
:100200006D1E58BF01F801CBFAD505E014F8016B5B
:1002100001F8016B6D1EF9D59142D6D370470000ED
:100220000023002400250026103A28BF78C1FBD8FF
:10023000520728BF30C148BF0B60704766290CF0D9
:10024000B480782908F09284002070471FB50CF024
:10025000A2F809F0BFF80400002000210BF0CCF94F
:10026000401C6060002000210BF0B0F9E0601FBD71
:1002700010B510BD09F0DAF91146FFF7E7FF00F0FD
:10028000A5FA09F053FC03B4FFF7F2FF03BC04F036
:10029000EDFC000010B52DED0C8B00243BE0601C44
:1002A0000BF0ABFC41EC1D0B9FEDFE0B53EC102B48
:1002B0000BF00AFD41EC1C0B9FEDFC0B53EC102BDB
:1002C0000BF0AAFA41EC1B0BB0EE4B0AF0EE6B0AF6
:1002D0000AF0F2FBB0EE40AAF0EE60AA9FEDF50B3B
:1002E00053EC102B51EC1A0B0BF0EEFC41EC190BFC
:1002F0009FEDF00B53EC102B0BF0D2F941EC180BE7
:10030000B0EE480AF0EE680A02F01FFBEB4921F854
:100310001400601CC4B2C82CC1DBBDEC0C8B10BD3A
:100320003EB54FF6FF7001F0CDFA0020E449088099
:100330000880E4A01E236E22142100900A2005F0FC
:1003400092FFE1490860DFA01E236E223721009052
:100350000A2005F088FFDD490860DAA01E236E221E
:10036000692100900A2005F07EFFD9490860D5A0D8
:100370001E235522692100908A2005F074FFD5497B
:100380000860C92050211E23C822CDE900108C210D
:10039000142005F0F0FED0490860D0A02823DC220C
:1003A000AF2100900A2005F05EFFCD490860CDA086
:1003B00010210B463C22CDE900100221052002F05D
:1003C00007FACAA010210B460822CDE900101A2115
:1003D0007D2002F0FDF9C6A010210B460822CDE9D0
:1003E00000103D217D2002F0F3F9C2A010210B4640
:1003F0003C22CDE900105721052002F0E9F9BFA009
:1004000010210B463C22CDE900105721872002F035
:10041000DFF9BCA010210B460822CDE900107121A4
:10042000E32002F0D5F9B1A010210B460822CDE956
:10043000001073217D2002F0CBF90020B2A2CDE99B
:10044000002023235A22052102908C2005F000FE73
:10045000B049086001200021AFA22323CDE900218B
:1004600002905A2232218C2005F0F2FDAD4908603D
:10047000002405E0002500E06D1C062DFCDB641C5B
:10048000032CF7DB002428E0002523E004EB8400A4
:100490006430284480B2002204EB84012944A24B3A
:1004A00053F82110CDE900120290C4EB4412DF3260
:1004B00091B22E2305FB03F2093290B219232822B0
:1004C00005F0C6FD04EB8401984A02EB810141F876
:1004D00025006D1C052DD9DB641C032CD4DB012108
:1004E0008C48006805F0A9F99049C868012105F019
:1004F000A4F900208E4908708E4908704FF47840A6
:100500006F4908803EBDF8B505460E4614461F46A5
:1005100004B9F8BD2819401E82B233463146284638
:10052000009701F0F0FC00BFF3E72DE9F05F07460C
:10053000884616469A4640F2C32070434FF47A71BB
:10054000B0FBF1F000F1010906FB06F000EB560BE1
:10055000344671040A0CB91B88B253464146FFF772
:10056000D2FF012535E005FB05F004FB04005845EA
:100570001AD94C4517D96B1E5B041A0C08EB0403FF
:1005800099B27B1B5B1C98B25346FFF7BCFF6B1EF6
:100590005B041A0CA8EB040399B27B1B5B1C98B29A
:1005A0005346FFF7B0FF641E63041A0C08EB050303
:1005B00099B23B1B98B25346FFF7A5FF63041A0C90
:1005C000A8EB050399B23B1B98B25346FFF79BFF7C
:1005D0006D1C4D45C7D9BDE8F09F02468A4202DD39
:1005E000501A80B27047881A80B2FBE72DE9FF4F9E
:1005F00085B080468946129F002003900290B8453E
:1006000007DB0798B84204DBB94502DB0898B8421B
:1006100002DA09B0BDE8F08F0798A0EB080408984B
:10062000A0EB0905CDF80480CDF80090002C02DD88
:100630004FF0010A06E014B94FF0000A02E04FF053
:10064000FF3A6442002D02DD4FF0010B06E015B9C0
:100650004FF0000B02E04FF0FF3B6D42AC4201DD7A
:10066000264600E02E46002004906EE0009A91B2EB
:10067000019A90B23A46139BFFF757FF0398204424
:1006800003900298284402900398B04205DD039835
:10069000801B03900198504401900298B04250DDB5
:1006A000029849E04AD8124DFB2119400000000091
:1006B000000069400000000000408A4098010020CE
:1006C0009C0000203000000050000020540000205A
:1006D000580000205C0000204C0000203330000057
:1006E000600000204F75747075743A005600000069
:1006F00041000000496E7075743A000044757479C9
:100700003A000000250000004F70656E204C6F6FAE
:100710007000000040000020436C6F7365204C6F38
:100720006F70000044000020000000205C010020E9
:100730006800002069000020801B02900098584447
:1007400000900498401C80B20490711C0498884268
:100750008CDD00BF5DE710B5434841680020884745
:10076000414890F8200000F0800008B33E4880899E
:100770003E490988884228DA3B48C08A3B49498873
:10078000884222DA3A48007850B93748C38A8289C9
:100790000121002005F054F901203549087014E0CA
:1007A0003148C38A82890321002005F049F90CE011
:1007B0002F48007848B12C48C38A82890221002042
:1007C00005F03EF900202A49087010BDA82004F069
:1007D000CBF94FF4A06005F05BFE4FF4165004F027
:1007E00053FA00F071F901202249087001F09CF8D9
:1007F00003F01CFF1C490868804703F077FEFFF7F1
:1008000049FD4FF478401C490880FFF789FD01201D
:100810001A49088042F210701949088041F26800B4
:1008200003F0C8FF03F03DFCB3EE0E0A154880ED5F
:10083000000A17E0FFF78FFF1348007890B10020FF
:10084000114908701148006804F044FB1048006822
:1008500004F040FB0F48006804F03CFB0E480068C1
:1008600004F038FBE6E70000A00000202803002089
:10087000840000206C0000209C0000207C000020F0
:100880007E000020780000206A0000205000002038
:1008900054000020580000205C000020704700BF7A
:1008A000FEE700BFFEE700BFFEE700BFFEE77047C0
:1008B00070477047704700000CB500200190009011
:1008C0007648006840F480307449086000BF73487F
:1008D000006800F4003000900198401C01900098DE
:1008E00018B90198B0F5A04FF1D16C48006800F438
:1008F000003010B10120009001E00020009000982D
:10090000012846D165484030006840F08050634976
:10091000403108606248006840F440406049086027
:100920005E48083000685D49083108600846006884
:1009300040F4004008600846006840F4A050086099
:100940005848091F0860081F006840F08070091FA0
:10095000086000BF5148006800F000700028F9D01E
:1009600040F20570504908604C480830006820F09B
:1009700003004A49083108600846006840F0020058
:10098000086000BF45480830006800F00C000828E7
:10099000F8D10CBD10B54548006840F470004349DB
:1009A00008603E48006840F001003C4908600020B3
:1009B0003A4908310860394800683D4908403749DC
:1009C00008603C48091D0860081F006820F480206A
:1009D000091F0860002031490C310860FFF76CFFE7
:1009E0004FF0006031498039086010BD70B50020BB
:1009F0000022022300240221284D08352D6805F02D
:100A00000C0020B1042806D0082834D107E02A4D74
:100A10002A4E356033E02A4D284E35602FE01F4DB9
:100A20002D1D2D68C5F380541C4D2D1D2D6805F01E
:100A30003F0154B1224DB5FBF1F5184E361D366815
:100A4000C6F3881605FB06F209E01B4DB5FBF1F570
:100A5000124E361D3668C6F3881605FB06F20F4D9A
:100A60002D1D2D68C5F301456D1C6B00B2FBF3F520
:100A7000124E356003E0104D104E356000BF00BFD0
:100A8000064D08352D68C5F303150E4E705D0B4DF0
:100A90002D68C540094E356070BD00000038024029
:100AA0000070004008544007003C024088ED00E020
:100AB000FFFFF6FE103000240024F4008800002020
:100AC00000127A008C0000201CB50121202006F0C5
:100AD00057FB4FF4C060009001208DF80400002007
:100AE0008DF8060003208DF8050001208DF8070021
:100AF0006946254805F0C2FD4FF4C061224805F063
:100B000039FE012000908DF8040000208DF80600C9
:100B100003208DF8050002208DF8070069461B4868
:100B200005F0ACFD0121194805F026FE04200090D7
:100B300001208DF8040000208DF8060003208DF8B8
:100B4000050001208DF807006946104805F096FD64
:100B500004210E4805F00EFE1020009001208DF8B3
:100B6000040000208DF8060003208DF80500022007
:100B70008DF807006946054805F080FD10210448FE
:100B800005F0F8FD1CBD000000140240000002400A
:100B9000001002400346DB108910D210D80240EA50
:100BA0004110104380B2704701B5BDF800000090BD
:100BB000BDF80000F849088008BD01B5BDF8000087
:100BC0000090BDF80000F449891C088008BD08B5F4
:100BD000F148801C00880090BDF8000008BDEE4A76
:100BE00010804FF0D842A2F88010704710B504462C
:100BF0002046FFF7D9FF052003F0D0FFFFF7E7FFFE
:100C000010BDE6480089E44908807047E249891C24
:100C10000880704730B5014601F01F04C1F3451349
:100C2000CA0AE50205EB43151544A8B230BD00BF62
:100C30000100A0F10102D0B2FAD1704730B50446EC
:100C40000D46D648808849F24131884205D0D348C4
:100C5000808845F21031884214D1D0494889FFF785
:100C6000A3FF2012FFF7A9FFE0B2FFF7A6FFCB49D1
:100C70008889FFF799FF2812FFF79FFFE8B2FFF777
:100C80009CFFABE0C548808846F6040188421DD130
:100C9000C2488079012804D1C0480088401E001B4A
:100CA00084B2BE494889FFF77FFF2012FFF785FF16
:100CB000E0B2FFF782FFB9498889FFF775FF281274
:100CC000FFF77BFFE8B2FFF778FF87E0B348808843
:100CD00041F66311884247D1B0488079A8B9AF483E
:100CE0000088401E001B84B2AC494889FFF75CFFB6
:100CF0000020FFF762FF0020FFF75FFF2012FFF7E1
:100D00005CFFE0B2FFF759FF16E0A4494889FFF7FE
:100D10004BFF2012FFF751FFE0B2FFF74EFF9F4954
:100D20000988491EC1F30F20FFF747FF9B49097847
:100D3000491EC8B2FFF741FF98498889FFF734FF81
:100D40002812FFF73AFFE8B2FFF737FF93494988C7
:100D5000491EC1F30F20FFF730FF90498978491EE3
:100D6000C8B2FFF72AFF39E08C48808845F210515D
:100D7000884220D189494889FFF716FF2012FFF7E2
:100D80001CFF86494989491C88B2FFF70DFFE0B274
:100D9000FFF713FF81498889FFF706FF2812FFF745
:100DA0000CFF7E498989491C88B2FFF7FDFEE8B235
:100DB000FFF703FF12E079488079012804D17748D2
:100DC0000088401E001B84B2744948892146FFF701
:100DD00006FF724988892946FFF701FF30BD2DE9DA
:100DE000F04105460E4600240027A0466B480088C7
:100DF000A84203DD69484088B04202DC0020BDE81B
:100E0000F08131462846FFF719FF6448808849F28F
:100E10004131884211D06148808846F604018842F9
:100E20000BD05E48808845F21031884205D05B487F
:100E3000808841F66311884203D12E20FFF7B4FE6B
:100E40000DE05648808845F21051884204D14FF495
:100E50003850FFF7A9FE02E02220FFF7A5FE4F4819
:100E6000808849F22031884202D10220FFF7DFFE5C
:100E7000FFF7ADFE04464948808841F66311884279
:100E800001D12046BBE70220FFF7D1FEFFF79FFE0E
:100E900004464248808849F2413188420BD03F489D
:100EA000808845F21031884205D03C48808845F260
:100EB000105188420AD10220FFF7B9FEFFF787FEE2
:100EC0008046E7B24FF6FF7000EA07273348808874
:100ED00049F22531884216D03048808844F2355195
:100EE000884210D02D488088091F88420BD02B489B
:100EF00080884BF20551884205D0284880884CF202
:100F00000551884201D1204679E72448808849F27A
:100F1000413188420BD02148808845F21031884207
:100F200005D01E48808845F21051884207D1E01252
:100F3000C002B91240EA411040EAE8205FE72046CB
:100F4000FFF768FE5BE700B51448808849F241313D
:100F5000884211D01148808846F6040188420BD09F
:100F60000E48808845F21031884205D00B488088B1
:100F700041F66311884203D12920FFF715FE14E0E2
:100F80000648808845F21051884209D14FF4245018
:100F9000FFF70AFE09E000007E00006C2803002035
:100FA00040F273110720FFF71AFE00BD00B5FD489F
:100FB000808849F24131884211D0FA48808846F64B
:100FC000040188420BD0F748808845F210318842EE
:100FD00005D0F448808841F66311884203D1282067
:100FE000FFF7E2FD0EE0EF48808845F2105188429D
:100FF00004D14FF42050FFF7D7FD03E00021072074
:10100000FFF7EDFD00BDF0B5054600240027E548DB
:10101000807901280BD1E348808846F60401884294
:1010200005D0E048808841F66311884208D1DD4848
:101030008079F0B9DB48808841F66311884218D185
:10104000082D15D2DFE805F00406080A0C0E101270
:1010500006250DE007250BE0042509E0052507E03E
:10106000012505E0002503E0032501E0022500BF7E
:1010700000BFCC48808849F24131884217D0C94826
:10108000808846F60401884211D0C648808845F21F
:10109000103188420BD0C348808845F210518842F5
:1010A00005D0C048808841F6631188427ED1082D62
:1010B0001CD2DFE805F00406090C0F12151800BF5A
:1010C00014E044F0800411E044F040040EE044F0E9
:1010D000C0040BE044F0200408E044F0600405E0A4
:1010E00044F0A00402E044F0E00400BF00BFAD48BB
:1010F000808845F21051884202D14FF4585700E0E1
:101100003627A848808845F2103188420DD0A5487E
:10111000808845F21051884207D0A248808841F665
:101120006311884201D044F008049E48808846F646
:101130000401884201D144F0020421463846FFF7F9
:101140004EFD9848808841F6631188421DD004F016
:10115000200068B19348008892494988884214DA8F
:101160009048068840888F490880084646800CE0F1
:101170008C4800888B494988884206DD8948068862
:10118000408888490880084646808648808845F21D
:101190001051884254D183494889FFF705FD00204A
:1011A000FFF70BFD7F494989491C00E077E088B2D1
:1011B000FFF7FAFC0020FFF700FD7A494989891CF6
:1011C00088B2FFF7F1FC77490988491EC1F30F2067
:1011D000FFF7F3FC73494989C91C88B2FFF7E4FCA7
:1011E00070490978491EC8B2FFF7E7FC6D49888944
:1011F000FFF7DAFC0020FFF7E0FC6A498989491C07
:1012000088B2FFF7D1FC0020FFF7D7FC6549898938
:10121000891C88B2FFF7C8FC62494988491EC1F39E
:101220000F20FFF7CAFC5F498989C91C88B2FFF704
:10123000BBFC5C498978491EC8B2FFF7BEFC55E08B
:1012400058494889FFF7B0FC0020FFF7B6FC0020A2
:10125000FFF7B3FC53490988491EC1F30F20FFF77C
:10126000ACFC50490978491EC8B2FFF7A6FC4D49AD
:101270008889FFF799FC0020FFF79FFC0020FFF70B
:101280009CFC48494988491EC1F30F20FFF795FC93
:1012900044498978491EC8B2FFF78FFC26E0082D23
:1012A0001CD2DFE805F004070A0D0F12151844F0F0
:1012B000300413E044F0100410E044F020040DE08A
:1012C00000BF0BE044F0380408E044F0280405E0D7
:1012D00044F0180402E044F0080400BF00BF0327F4
:1012E00044F4805421463846FFF779FCF0BD30B510
:1012F00004460D4629462046FFF7A0FCFFF781FC77
:10130000294800882949088030BD70B504460D463B
:1013100016462448808849F24131884205D0214848
:10132000808845F21031884214D11E494889FFF760
:101330003BFC2012FFF741FCE0B2FFF73EFC1949ED
:101340008889FFF731FC2812FFF737FCE8B2FFF776
:1013500034FC93E01348808845F21051884227D12D
:1013600010494889FFF720FC2012FFF726FC0D49A1
:101370004989491C88B2FFF717FCE0B2FFF71DFC52
:1013800008498889FFF710FC2812FFF716FC054969
:101390008989491C88B2FFF707FCE8B2FFF70DFC0A
:1013A0006CE00000280300209C0000208000006CFE
:1013B000FE48808841F66311884228D1FB48807935
:1013C00020B9FA480088401E001B84B2F7494889BA
:1013D000FFF7EAFB2012FFF7F0FBE0B2FFF7EDFBAF
:1013E0002012FFF7EAFBE0B2FFF7E7FBEF4988893D
:1013F000FFF7DAFB2812FFF7E0FBE8B2FFF7DDFBAF
:101400002812FFF7DAFBE8B2FFF7D7FB36E0E74830
:10141000808846F6040188421DD1E448807901287D
:1014200004D1E2480088401E001B84B2DF4948898D
:10143000FFF7BAFB2012FFF7C0FBE0B2FFF7BDFBDE
:10144000DA498889FFF7B0FB2812FFF7B6FBE8B24C
:10145000FFF7B3FB12E0D5488079012804D1D348C7
:101460000088401E001B84B2D04948892146FFF7FE
:10147000B6FBCE4988892946FFF7B1FBCB480089E6
:10148000CB4908804FF0D840A0F8806070BD70B59F
:101490002DED048B0446BE20FFF786FB0520FFF7E9
:1014A0008CFB20460AF0C0FB41EC190B9FEDC10BF1
:1014B00053EC102B0AF008FC41EC180B0AF070FBFF
:1014C00085B22846FFF779FB0120FFF776FBFF2066
:1014D000FFF773FB0020FFF770FB0020FFF76DFBA9
:1014E000BDEC048B70BD10B50446002C66D1AF492D
:1014F0008871F02008804FF4A070488008468088EA
:1015000049F2413188420BD0A848808846F6040150
:10151000884205D0A548808845F2103188421AD10A
:101520002C20A24908812A2048812B208881084646
:10153000808846F60401884205D09C48808845F2A0
:101540001031884206D14FF4A070984908804FF4BA
:10155000F0704880A1E09548808845F2105188429B
:1015600010D14FF43050914908814FF428504881F0
:101570004FF42C5088814FF4F07008804FF448707D
:1015800048808AE08948808841F6631188420DD1FD
:101590002C20864908812B2048812A2088814FF4FD
:1015A000F07008804FF44870488076E022207F4930
:1015B000088120204881212088816EE001207B491C
:1015C00088714FF4A0700880F02048800846808819
:1015D00049F24131884205D07448808845F2103183
:1015E000884207D12C20714908812A2048812B206C
:1015F00088813FE06D48808846F60401884207D123
:101600002C206A4908812B2048812A20888131E0DA
:101610006648808845F21051884210D14FF430500E
:10162000624908814FF4285048814FF42C5088813A
:101630004FF4487008804FF4F07048801AE05B481F
:10164000808841F6631188420DD12C2057490881CA
:101650002A2048812B2088814FF4487008804FF45D
:10166000F070488006E022205049088121204881FE
:10167000202088814D48808846F60401884205D0A4
:101680004A48808845F21031884206D14FF4F07004
:10169000464908804FF4A07048800020FFF7B3FC53
:1016A00010BD2DE9F04F86B004460D469046994690
:1016B00004EB0800401E86B205EB0900401E87B20D
:1016C0003A48808849F24131884215D037488088AD
:1016D00045F2103188420FD03448808846F6040124
:1016E000884209D031488079012826D12F48808846
:1016F00041F66311884220D12C494889FFF754FAFA
:101700002012FFF75AFAE0B2FFF757FA3012FFF74C
:1017100054FAF0B2FFF751FA24498889FFF744FAE6
:101720002812FFF74AFAE8B2FFF747FA3812FFF734
:1017300044FAF8B2FFF741FAC1E01C48808841F64C
:10174000631188423DD119480088A0EB0800001BB6
:1017500084B205EB0900401E1FFA80F9134948893D
:10176000FFF722FA2012FFF728FAE0B2FFF725FA76
:1017700004EB0801491EC1F30F20FFF71EFA04EB2A
:101780000801491EC8B2FFF718FA08498889FFF70F
:101790000BFA2812FFF711FAE8B2FFF70EFA4FEA38
:1017A0002920FFF70AFA09F0FF0007E028030020CC
:1017B0007E00006C6666666666660440FFF7FDF9AB
:1017C0007DE0FE48808845F21051884244D1FB49B3
:1017D0004889FFF7E9F92012FFF7EFF9F74949893E
:1017E000491C88B2FFF7E0F9E0B2FFF7E6F9F349E8
:1017F0004989891C88B2FFF7D7F93012FFF7DDF964
:10180000EE494989C91C88B2FFF7CEF9F0B2FFF75B
:10181000D4F9EA498889FFF7C7F92812FFF7CDF90B
:10182000E6498989491C88B2FFF7BEF9E8B2FFF79B
:10183000C4F9E2498989891C88B2FFF7B5F93812E1
:10184000FFF7BBF9DD498989C91C88B2FFF7ACF9FC
:10185000F8B2FFF7B2F932E0D848807901280ED10A
:10186000AA46BB46D5480088801B401E80B2019026
:10187000D2480088001B401E80B2009003E0A246C0
:10188000B3460195009750200590512004905220B6
:1018900003905320029051460598FFF7A0F959464E
:1018A0000498FFF79CF901990398FFF798F90099BC
:1018B0000298FFF794F929462046FFF7BFF906B0D2
:1018C000BDE8F08F70B504460026BC480588408806
:1018D0004543BA48808846F60401884216D1B74885
:1018E0008079012812D10020B44988712A204881CA
:1018F0002B20888100210846FFF7A0F90120AF497D
:1019000088712B2048812A20888103E00021084625
:10191000FFF794F9FFF775F9002602E0A848048064
:10192000761CAE42FAD370BD00B5A1B00020209065
:1019300001217A2005F024FC0121084605F058FC1D
:101940004FF400401E9001208DF87C0000208DF89F
:101950007E0002208DF87D0001208DF87F001EA9F9
:10196000984804F08BFE4CF233701E9002208DF8E4
:101970007C0000208DF87E0003208DF87D00012082
:101980008DF87F001EA9904804F078FE4FF6807015
:101990001E9002208DF87C0000208DF87E00032030
:1019A0008DF87D0001208DF87F001EA9874804F086
:1019B00065FE4FF480501E9002208DF87C000020C0
:1019C0008DF87E0003208DF87D0001208DF87F00CA
:1019D0001EA97F4804F052FE4FF480501E90022052
:1019E0008DF87C0000208DF87E0003208DF87D00AE
:1019F00001208DF87F001EA9764804F03FFE0C22DE
:101A00000021714804F0C5FE0C2201216E4804F04B
:101A1000C0FE0C2204216C4804F0BBFE0C22052100
:101A2000694804F0B6FE0C220821674804F0B1FEB4
:101A30000C220921644804F0ACFE0C220A21624801
:101A400004F0A7FE0C220E215F4804F0A2FE0C2237
:101A50000F215D4804F09DFE0C2207215B4804F035
:101A600098FE0C220821594804F093FE0C2209210B
:101A7000564804F08EFE0C220A21544804F089FED8
:101A80000C220B21514804F084FE0C2211464F48D1
:101A900004F07FFE0C220D214C4804F07AFE0C224B
:101AA0000E214A4804F075FE0C220F21474804F02D
:101AB00070FE0C221146464804F06BFE0C221146C3
:101AC000444804F066FE0F200890002009903C2056
:101AD0000A9000200B900C900D900E900920019020
:101AE00000200290082003900020049005900690AA
:101AF000079006200F900020109011901020129057
:101B00000020139015901490169017904FF4805069
:101B10001890002019904FF480401A9000201B90DC
:101B200008A81C9001A81D900FA804F086FE0121B2
:101B3000062004F00DFF322003F078F80121002088
:101B4000FFF74DF8322003F071F80020FFF74EF850
:101B50001A49888008468088FF280ADB0846808862
:101B60004FF6FF71884204D014488088B0F5134FB7
:101B70007ED1D320FFF718F8FFF729F8FFF727F8F1
:101B8000FFF725F80D498880084680884FF6FF71D9
:101B900001EA002009498880FFF719F80749898878
:101BA0000843064988800846808849F241318842C6
:101BB0007CD0BF20FEF7F8FF0EE0000028030020D5
:101BC0008000006C00040240000C02400010024043
:101BD0000014024000180240FEF7F9FFFEF7F7FF7D
:101BE000FEF7F5FFFEF7F3FFFB4988800846808883
:101BF0004FF6FF7101EA0020F7498880FEF7E7FF02
:101C0000F54989880843F44988800846808846F663
:101C1000040188424AD0D420FEF7C6FFFEF7D7FF62
:101C2000FEF7D5FFFEF7D3FFEB4988800846808892
:101C30004FF6FF7101EA0020E7498880FEF7C7FFF1
:101C4000E54989880843E44988800846808845F248
:101C5000103188422AD04FF45A40FEF7A5FFFEF714
:101C6000B6FF4FF45B40FEF79FFFFEF7B0FF00E0CA
:101C70001CE0D9498880084680884FF6FF7101EA48
:101C80000020D54988804FF45C40FEF78DFFFEF7B9
:101C90009EFFD14989880843CF49888008468088BB
:101CA000B0F5004F02D145F210508880CA488188B3
:101CB000CAA006F03BFFC848808849F241318842FB
:101CC0007ED1CF20FEF770FF0020FEF776FFC12007
:101CD000FEF773FF3020FEF770FFED20FEF764FF84
:101CE0006420FEF76AFF0320FEF767FF1220FEF76D
:101CF00064FF8120FEF761FFE820FEF755FF852095
:101D0000FEF75BFF1020FEF758FF7A20FEF755FF25
:101D1000CB20FEF749FF3920FEF74FFF2C20FEF7BE
:101D20004CFF0020FEF749FF3420FEF746FF02205B
:101D3000FEF743FFF720FEF737FF2020FEF73DFFB9
:101D4000EA20FEF731FF0020FEF737FF0020FEF704
:101D500034FFC020FEF728FF1B20FEF72EFFC12016
:101D6000FEF722FF0120FEF728FFC520FEF71CFF2B
:101D70003020FEF722FF3020FEF71FFFC720FEF7BE
:101D800013FFB720FEF719FF3620FEF70DFF48209E
:101D9000FEF713FF3A20FEF707FF5520FEF70DFF71
:101DA000B120FEF701FF0020FEF707FF1A20FEF723
:101DB00004FFB620FEF7F8FE0A20FEF7FEFE00E064
:101DC00095E0A220FEF7F9FEF220FEF7EDFE0020DE
:101DD000FEF7F3FE2620FEF7E7FE0120FEF7EDFEFC
:101DE000E020FEF7E1FE0F20FEF7E7FE2A20FEF7D7
:101DF000E4FE2820FEF7E1FE0820FEF7DEFE0E20BE
:101E0000FEF7DBFE0820FEF7D8FE5420FEF7D5FED5
:101E1000A920FEF7D2FE4320FEF7CFFE0A20FEF7F0
:101E2000CCFE0F20FEF7C9FE0020FEF7C6FE002004
:101E3000FEF7C3FE0020FEF7C0FE0020FEF7BDFE49
:101E4000E120FEF7B1FE0020FEF7B7FE1520FEF7F9
:101E5000B4FE1720FEF7B1FE0720FEF7AEFE1120FC
:101E6000FEF7ABFE0620FEF7A8FE2B20FEF7A5FE30
:101E70005620FEF7A2FE3C20FEF79FFE0520FEF74F
:101E80009CFE1020FEF799FE0F20FEF796FE3F20E5
:101E9000FEF793FE3F20FEF790FE0F20FEF78DFE2B
:101EA0002B20FEF781FE0020FEF787FE0020FEF7C4
:101EB00084FE0120FEF781FE3F20FEF77EFE2A20F1
:101EC000FEF772FE0020FEF778FE0020FEF775FE9A
:101ED0000020FEF772FEEF20FEF76FFE1120FEF7E6
:101EE00063FE782002F0A2FE2920FEF75DFE0020AE
:101EF000FFF7F9FA01203D4908604FF6FF70FFF740
:101F0000E1FC21B000BD2DE9F04F81460C4616469C
:101F10001F46DDF824A04FF0000B254613E02946AC
:101F20004846FEF78BFEFEF76CFE4FF0000806E019
:101F30005046FEF742FE08F101001FFA80F8B04556
:101F4000F6DB681C85B2E019401EA842E7DABDE85E
:101F5000F08F2DE9F04782460F4615469846DDF88A
:101F6000209000241EE0381981B25046FEF766FE2C
:101F7000FEF747FE002611E004FB05604000093033
:101F800019F8001004FB05604000083019F8000043
:101F900041EA002016490880701C86B2AE42EBDB95
:101FA000601C84B24445DEDBBDE8F0872DE9FF4FBD
:101FB00084B081468A460020039002900698A0EBE8
:101FC00009050798A0EB0A06CDF80490CDF800A00B
:101FD000002D0FDD012713E028030020204C43448F
:101FE0002049443A25780D0A00000000BC82404296
:101FF0008000006C0DB9002702E04FF0FF376D4202
:10200000002E02DD4FF0010806E016B94FF000087F
:1020100002E04FF0FF387642B54201DD2C4600E089
:1020200034464FF0000B21E0009A91B2019A90B231
:10203000FFF75DF90398284403900298304402901A
:102040000398A04205DD0398001B039001983844D3
:1020500001900298A04205DD0298001B02900098B2
:10206000404400900BF101001FFA80FB601C834587
:10207000DADD08B0BDE8F08FF0B504460D4616462F
:102080001F462B46324629462046FFF78FFF3B4628
:10209000224629462046FFF789FF3B46324639460D
:1020A0002046FFF783FF3B46324629463046FFF77E
:1020B0007DFFF0BD2DE9F04306460F469046002413
:1020C00045460320A0EB48093CE07A1B91B2321947
:1020D00090B2FFF70CF93A1B91B2721990B2FFF768
:1020E00006F93A1991B2721990B2FFF700F97A190C
:1020F00091B2321990B2FFF7FAF87A1991B2321B05
:1021000090B2FFF7F4F83A1991B2721B90B2FFF750
:10211000EEF87A1B91B2321B90B2FFF7E8F83A1B47
:1021200091B2721B90B2FFF7E2F8641CB9F1000F94
:1021300003DAA000801D814404E0601B80000A30A7
:1021400081446D1EAC42C0DDBDE8F0832DE9F04F47
:1021500080460D4691469A46DDE9096BFC480088A9
:10216000404503DBFA484088A84202DA0020BDE877
:10217000F08F08EB0900401EF5490988884206DC0B
:1021800005EB0A00401EF2494988884201DD002023
:10219000EDE7002424E0281981B24046FEF74EFD09
:1021A000FEF72FFD002717E00B982044F17800FB85
:1021B0000170584440000930315C0B982044F2789B
:1021C00000FB0270584440000830305C41EA0020B7
:1021D000E0490880781C87B24F45E5DB601C84B27B
:1021E0005445D8DB0120C2E72DE9F84F80460D4663
:1021F00016461F46DDF82890D5480088404503DB89
:10220000D3484088A84202DA0020BDE8F88F08EBE6
:102210000600401ECE490988884205DCE819401EA8
:10222000CB494988884201DD0020EEE7002436E0F2
:10223000281981B24046FEF701FDFEF7E2FC0E9838
:10224000604390FBF7F10C98084499F80310484359
:1022500000904FF0000A1EE00D980AFB00F090FB82
:10226000F6FB009800EB0B010B9808444000093086
:1022700019F80010009800EB0B020B981044400076
:10228000083019F8000041EA0020B24908800AF13C
:1022900001001FFA80FAB245DEDB601C84B2BC424A
:1022A000C6DB0120B1E72DE9FF4F88B015461E4679
:1022B000DDE9169A159C4FF0000BDCE0002007903A
:1022C000D1E019980BFB00F090FBF6F01FFA80F8B4
:1022D00018990798484390FBF5F087B2189907982A
:1022E000484390FBF5F105FB1100281A80B20690D7
:1022F00019980BFB00F090FBF6F106FB1100301A69
:1023000080B205900AEB0800E17800FB01704844B8
:1023100040000930215C0AEB0800E27800FB027003
:10232000484440000830205C41EA002104910AEB57
:102330000800E17800FB01704844401C400009306F
:10234000215C0AEB0800E27800FB02704844401C64
:1023500040000830205C41EA002003900AEB0800AE
:10236000401CE17800FB0170484440000930215CCA
:102370000AEB0800401CE27800FB02704844400071
:102380000830205C41EA002002900AEB0800401C63
:10239000E17800FB01704844401C40000930215C9A
:1023A0000AEB0800401CE27800FB02704844401C25
:1023B00040000830205C41EA00200190DDE9051072
:1023C0004843DDE903218A1A0299521A01991144FE
:1023D0004143059805FB00F2039802FB00120698A2
:1023E00006FB00F1029801FB002205FB06F10698AE
:1023F00006FB1011059805FB1011019801FB002048
:1024000080B2009005FB06F000EBD0714A100099F5
:102410000A4405FB06F192FBF1F189B20091099A99
:102420005A4491B2DDE907321A4490B2FEF7D7FC64
:102430001A99C1F1FF0148431A9A009901FB020061
:10244000FF2190FBF1F080B20090099A5A4491B2BA
:10245000DDE907321A4490B2009AFEF756FF07985A
:10246000401C80B207900798A842FFF62AAF0BF1F4
:1024700001001FFA80FBB345FFF620AF01200CB02E
:10248000BDE8F08F2DE9FC4F81460D4616461F46EC
:10249000DDF82C802E480088484503DB2C48408816
:1024A000A84202DA0020BDE8FC8F09EB0600401EBE
:1024B00027490988884205DCE819401E24494988D3
:1024C000884201DD0020EEE700243DE0281981B2BA
:1024D0004846FEF7B3FBFEF794FB002001902EE088
:1024E0000F98604390FBF7FB0E990198484390FBCF
:1024F000F6FA0D98584498F8031000FB01A10C98C7
:1025000008444000093018F800100D98584498F815
:10251000032000FB02A20C9810444000083018F879
:10252000000041EA0020009010990098884202D0F3
:102530000849009808800198401C80B201900198D9
:10254000B042CDDB601C84B2BC42BFDB0120AAE7F5
:10255000280300208000006C2DE9F84F80460E46CD
:1025600017461C46B3462046E31704EB5373DB10B3
:1025700021464FEAE47C04EB5C7C4FEAEC0CA4EBD4
:10258000CC0CBCF1000F02D04FF0010C01E04FF079
:10259000000C6344224604EBD27C4FEA6C0C03FB34
:1025A0000CF3DBB20093A7F12000C7B2002556E080
:1025B0000C2C07D107EB4700F84901EB800010F81D
:1025C000059013E0102C05D1F54800EB071010F82A
:1025D00005900BE0182C07D107EBC700F14901EB80
:1025E000800010F8059001E0BDE8F88F4FF0000A78
:1025F0002FE009F0800030B1EB48028831464046B8
:10260000FEF783FE07E00A9828B9E84802883146B9
:102610004046FEF77AFE4FEA49604FEA1069701CA7
:1026200086B2E3484088B04200DCDDE7A6EB0B0051
:10263000A0420AD15E4608F101001FFA80F8DC488A
:102640000088404500DCCFE706E00AF1010000F019
:10265000FF0ABAF1080FCCDB00BF681CC5B20098B6
:102660008542A5DB00BFBFE710B50246012000E0B0
:1026700050430B00A1F10104E1B2F9D110BD2DE9E5
:10268000FF4F81B0074691461E460E9D4FF0000A4F
:10269000002439E0301B401EC1B20A20FFF7E4FFDE
:1026A000B9FBF0F00A21B0FBF1F201FB1208BAF11C
:1026B000000F16D1701EA04213DDB8F1000F0ED12D
:1026C0000020AB4605EBDB71491001FB0471009063
:1026D00088B22B4620220299FFF73EFF12E04FF00E
:1026E000010A0020AB4605EBDB71491001FB0471C8
:1026F000009088B208F13001CAB22B460299FFF768
:102700002BFF00BF601CC4B2B442C3DB05B0BDE800
:10271000F08F2DE9FF4F82B0064692461F46DDE955
:102720000F480020019000254DE0781B401EC1B2EB
:102730000A20FFF799FFBAFBF0F00A21B0FBF1F293
:1027400001FB1209019850BB781EA84227DDB9F1A0
:10275000000F22D108F0800078B108F00100A346F4
:1027600004EBDB71491001FB0561009088B2234640
:1027700030220399FFF7F0FE0EE008F00100A346B7
:1027800004EBDB71491001FB0561009088B2234620
:1027900020220399FFF7E0FE13E00120019008F0EA
:1027A0000100A34604EBDB71491001FB05610090B9
:1027B00088B209F13001CAB223460399FFF7CCFE73
:1027C00000BF681CC5B2BD42AFDB06B0BDE8F08FEC
:1027D0002DE9F84704460D4690469946DDE909671C
:1027E00004F0FF0A08EB04001FFA80F809EB05006B
:1027F0001FFA80F916E0444502DB5446A81985B259
:102800004D4500DB14E0012000903A78334629461C
:102810002046FFF7A1FE304606EBD07104EB6101C4
:102820008CB27F1C38787E2802DC38782028E2DAE7
:1028300000BFBDE8F8872DE9F04F8BB081460C460C
:10284000924628225BA101A806F09CFA0026BAF164
:102850000A0F0AD1B9F1000F07DAC9F100072D22DA
:102860003046711C8EB2225400E04F4600BFB7FBC9
:10287000FAF00AFB107001A90A5C3046711C8EB296
:102880002254B7FBFAF7002FF1D10020A055207891
:102890002D2802D14FF0010801E04FF00008454615
:1028A0000DE014F805B0701E4044401B205C6055DC
:1028B000701E4044401B04F800B0681C85B2701EB6
:1028C00000EBD071B5EB610FEBDD20460BB0BDE83E
:1028D000F08F10B504460A2240492046FFF7ABFFAF
:1028E0003E4810BD10B52DED028BB0EE408AF0EEE3
:1028F000608A53EC182B3AA13B4806F023F93A487A
:1029000006F015FA401EC4B212E03748005D3028C8
:1029100003D100203449085508E03348005D2E28D3
:1029200003D100203049085504E003E0601EC4B222
:10293000002CEADC00BF2C48BDEC028B10BD10B5AA
:102940000446204607F0A8FF10BD10B52DED068BFC
:10295000B0EE408AF0EE608AB0EE480AF0EE680A07
:1029600007F0B6FFB0EE40AAF0EE60AA53EC182BC9
:1029700051EC1A0B09F0DCFA41EC190B9FED1B0B23
:1029800053EC102B09F09EFA34D251EC180B09F0DD
:1029900007F980B2BDEC068B10BD0000AAC4000888
:1029A0001EC900080ECF00089C0000209E000020D9
:1029B000280300203031323334353637383941423C
:1029C000434445464748494A4B4C4D4E4F5051525F
:1029D000535455565758595A0000000036030020EA
:1029E000252E3366000000004A030020000000008E
:1029F0000000E03F1FED030B53EC102B51EC180BC4
:102A000008F04EFE41EC190B09F0CAF880B2BDEC9B
:102A1000068B10BD2DE9F04F2DED028B83B00546DE
:102A20008946B0EE408AF0EE608AB0EE480AF0EED9
:102A3000680AFFF757FF0646304606F078F9C0B23D
:102A40000290A846CDF80490002032490880002466
:102A50005AE008F10F001FFA80F8DDF804904546AF
:102A600000274DE0305D30280CDB305D392809DC73
:102A7000305D3038C0EB0010274901EB800010F8C2
:102A800007B00DE0305D2E2803D1244810F807B0C0
:102A900006E0305D2D2803D12048783010F807B0CB
:102AA0004FF0000A26E00BF0010018B14946284615
:102AB000FEF71DFC4FEA6B0B681C85B21848408876
:102AC000A84204DC03B0BDEC028BBDE8F08FA5EB9F
:102AD00008000F280AD1454609F101001FFA80F9C4
:102AE0000F480088A84200DCECE706E00AF101008C
:102AF00000F0FF0ABAF1080FD5DB00BF781CC7B29F
:102B00003C2FAFDB601CC4B202988442A1DB00BF43
:102B1000D8E700009C0000206ADC0008C2DE000844
:102B200028030020002100BF14E000F080021AB149
:102B30000122FA4B1A6002E00022F84B1A604206AA
:102B4000100E0022F64B1A600122F64BC3F88022C9
:102B50004A1CD1B20829E8DB704770B5064600254B
:102B600000240020EE490860EF49C1F8AC02EF49AB
:102B700008603046FFF7D6FF062002F00FF800206D
:102B8000E849C1F88002012002F008F80120E44978
:102B900008600020E349C1F8800200BF12E04FF650
:102BA000FF7000EA44040020DD4908600120DD498F
:102BB000C1F88002DA487838006808B1601C84B235
:102BC000681CC5B2102DEADB24110120D74908602A
:102BD000204670BD2DE9FE4380460027002406E014
:102BE0004046FFF7BAFF2DF81400601C84B2052C94
:102BF000F6DB002416E0601C85B20FE03DF81400FF
:102C00003DF81510884207DD3DF814603DF81500C9
:102C10002DF814002DF81560681C85B2052DEDDB2C
:102C2000601C84B2042CE6DB0027012405E03DF89B
:102C30001400384487B2601C84B2042CF7DB0320F4
:102C400097FBF0F086B23046BDE8FE832DE9F041F7
:102C500004460D46B6480078FFF7BCFF0646B54867
:102C60000078FFF7B7FF074626802F800120BDE8D8
:102C7000F0817FB504460D4602A903A8FFF7E6FFE1
:102C8000064616B9002004B070BD694601A8FFF7DA
:102C9000DDFF06460EB90020F5E7BDF80400BDF8DB
:102CA0000C10884206DCBDF80C10BDF80400323070
:102CB00081420CDBBDF80C00BDF80410884236DC04
:102CC000BDF80410BDF80C00323081422FDABDF897
:102CD0000000BDF80810884206DCBDF80810BDF8F9
:102CE0000000323081420CDBBDF80800BDF8001056
:102CF00088421CDCBDF80010BDF80800323081426B
:102D000015DABDF80C10BDF80420881800EBD0715E
:102D1000C1F34F012180BDF80810BDF800208818CC
:102D200000EBD071C1F34F0129800120ABE70020F7
:102D3000A9E770B504460D4616467F48068004F1A3
:102D40000D018AB2193988B22B462946FFF72EF9B0
:102D500005F10D0083B2193881B222462046FFF7F3
:102D600025F96A1C91B2621C90B2FEF7C0FA6A1C87
:102D700091B2621E90B2FEF7BAFA6A1E91B2621C5C
:102D800090B2FEF7B4FA6A1E91B2621E90B2FEF7DC
:102D9000AEFA062229462046FFF78CF970BD70B5C1
:102DA00004460D4616466448068029462046FEF72E
:102DB0009EFA611C88B22946FEF799FA681C81B216
:102DC0002046FEF794FA6A1C91B2621C90B2FEF79C
:102DD0008EFA70BD10B52DED088B044650487C3836
:102DE0000068002873D12CB15449A1F10A00FFF703
:102DF00040FF59E05149A1F10A00FFF73AFFE8B35B
:102E00004E491639B1F9380008F0F7FE41EC190BBC
:102E10004A491639888908F007FF41EC1B0B4748DF
:102E2000163890ED0A1BB0EE410AF0EE610A53EC41
:102E3000102B51EC1B0B08F047FF41EC1A0B53EC25
:102E4000192B08F02DFC41EC180B08F0A9FE3B49AA
:102E500016398881B1F93A0008F0CFFE41EC190B20
:102E600036491639C88A08F0DFFE41EC1B0B33489F
:102E7000163890ED0C1BB0EE410A00E014E0F0EEC5
:102E8000610A53EC102B51EC1B0B08F01DFF41ECB9
:102E90001A0B53EC192B08F003FC41EC180B08F04B
:102EA0007FFE26491639C8822448163890F820003B
:102EB00000F0800040BBC0202049163981F8200076
:102EC000084681898182C18AC1831DE0FFE71B48D2
:102ED000163890F8200000F0800050B117481638DE
:102EE00090F8200020F080001449163981F8200065
:102EF0000AE00021114816388182C1834FF6FF7025
:102F00000E4916398881C8820C48163890F820007E
:102F100000F08000BDEC088B10BD0000AC82424286
:102F2000808240420080404200804242B4024142DE
:102F3000E0000020E10000209C000020B6000020FE
:102F400010B52DED028BFE4890ED0A1BB0EE410A44
:102F5000F0EE610A9FEDFB1B53EC112B51EC100BB3
:102F600008F0B2FE41EC180B08F0EAFD044604221A
:102F70002146282001F022F9F14890ED0C1BB0EE1B
:102F8000410AF0EE610A9FEDEF1B53EC112B51EC5F
:102F9000100B08F099FE41EC180B08F0D1FD044627
:102FA000042221462C2001F009F9E548B0F9381037
:102FB0000222302001F002F9E148B0F93A10022271
:102FC000322001F0FBF8DE4890F83C10342001F08C
:102FD000CDF80A242146352001F0C8F8BDEC028B5B
:102FE00010BD70B5352001F095F804460A2C50D17B
:102FF0000421282001F0F7F8044600EE104AB8EE4C
:10300000C00ADFEDD20A80EE201A11EE105A2846CF
:1030100009F050F9CA4AC2E90A0104212C2001F042
:10302000E2F8044600EE104AB8EEC00ADFEDC70A27
:1030300080EE201A11EE105A284609F03BF9C04ADA
:10304000C2E90C010221302001F0CDF800B2BC49E8
:1030500008870221322001F0C6F800B2B84948873B
:10306000342001F057F8B64981F83C00084690F842
:103070003C0030B19020B6490870D020B5490870A6
:1030800005E0D020B24908709020B24908700120B4
:1030900070BD0020FCE72DE9FC5F04460D46174695
:1030A0001E46DDE90EABDDE90C894FF47840AA49F4
:1030B0000880AAA01021CDE90010A9484388028801
:1030C000A0212820FFF784FBA6A01021CDE9001045
:1030D000A34843880288A0217820FFF779FBA2A0AB
:1030E0001021CDE900109E4843880288B421282091
:1030F000FFF76EFB9DA01021CDE900109848438892
:103100000288B4217820FFF763FB99A01021CDE954
:103110000010934843880288C8212820FFF758FBF5
:1031200094A01021CDE900108D4843880288C82161
:103130007820FFF74DFB90A01021CDE900108848C2
:1031400043880288DC212820FFF742FB8BA0102156
:10315000CDE90010824843880288DC217820FFF7FF
:1031600037FB87A01021CDE900107D4843880288F5
:10317000F0212820FFF72CFB84A01021CDE90010BE
:103180007748438802884FF482712820FFF720FB9C
:10319000102004232246A02100904020FFF76FFA60
:1031A000102004232A46A02100909020FFF767FA00
:1031B000102004233A46B42100904020FFF75FFA24
:1031C000102004233246B42100909020FFF757FAD4
:1031D000102004234246C82100904020FFF74FFAF8
:1031E000102004234A46C82100909020FFF747FA98
:1031F000102004235246DC2100904020FFF73FFAC4
:10320000102004235A46DC2100909020FFF737FA63
:10321000102003230090F0216820109AFFF72FFA66
:103220001020032300904FF482716820119AFFF759
:1032300026FABDE8FC9F00B52DED0A8B85B040F263
:10324000AF10ADF804004FF4C470ADF8060040F6BE
:103250004460ADF808004FF4CF71ADF80A1040F2A9
:103260000720ADF80C0040F6C951ADF80E1040F63D
:103270000A60ADF8100040F6EC51ADF81210BDF840
:103280000810BDF80420881A08F0B7FC41EC180BB0
:1032900033490988A1F1280008F0AFFC41EC190B73
:1032A00053EC182B08F0B8FA254AC2E90A01BDF818
:1032B0000810BDF80420881808F09FFC41EC1C0B96
:1032C0001F4890ED0A1BB0EE410AF0EE610A53EC84
:1032D000102B51EC1C0B08F0F7FC41EC1A0B2049A9
:1032E000088808F0A1FC41EC1B0B53EC1A2B08F0EA
:1032F000F7FE41EC190B9FED280B53EC102B08F057
:103300008BFA41EC180B08F01BFC00B20C49088743
:10331000BDF80E10BDF80620881A08F06EFC41ECCE
:10332000180B0F494988A1F1280008F066FC41EC10
:10333000190B53EC182B08F06FFA014A30E000002B
:10334000A00000200000000084D7974120BCBE4CA4
:10335000E0000020E10000209C00002078313A00CD
:103360002803002079313A0078323A0079323A0065
:1033700078333A0079333A0078343A0079343A00B5
:10338000786661632069733A0000000079666163C2
:103390002069733A000000000000000000000040B7
:1033A000C2E90C01BDF80E10BDF80620881808F01F
:1033B00024FC41EC1C0BF84890ED0C1BB0EE410ACC
:1033C000F0EE610A53EC102B51EC1C0B08F07CFC66
:1033D00041EC1A0BF149488808F026FC41EC1B0B24
:1033E00053EC1A2B08F07CFE41EC190B1FED160B69
:1033F00053EC102B08F010FA41EC180B08F0A0FB6E
:1034000000B2E549488705B0BDEC0A8B00BD00B5A8
:1034100097B0002012900C9012901F20E049088075
:103420004FF6FF70DF490880FEF74CFA4FF4784002
:10343000DB4908804FF6FF70FEF744FA0021D848B8
:103440000180D948016810206423A022CDE9000141
:1034500028210846FFF7BCF94FF4784214210846AA
:10346000FFF767FC0020CC4981F820009FEDCF0BCF
:10347000084680ED0A0B37E2C74840680B900120F0
:103480000B998847C44890F8200000F0C0004028FD
:103490006FD100200C90C04890F8200020F0400030
:1034A000BD4981F820000846818913AA129822F8A4
:1034B0002010B948C18A129802EB8000418012980E
:1034C000401CC0B212901298012806D0022815D0D4
:1034D000032829D0042810D141E04FF6FF721421AF
:1034E0000846FFF726FCAD480088143880B24FF438
:1034F000784214210B90FFF71CFCF1E3A7480088E9
:10350000143880B24FF6FF7214210B90FFF711FCB4
:10351000A2484088143880B24FF4784201460B909C
:103520001420FFF706FCDBE39C484088143880B287
:103530004FF6FF7201460B901420FFF7FAFB9748F5
:103540004088143880B20B9094480088143880B2B8
:103550004FF478420A900B99FFF7EBFBC0E3BDF8FC
:103560004C00BDF85010401A0B90002802DB0B985D
:1035700002E0FCE30B9840420F90BDF84E1013A8F8
:10358000C088081A0B90002801DB0B9801E00B980B
:1035900040420E900F9840430F900E9840430E907B
:1035A000DDE90E100844079008F03EFBCDE9080164
:1035B0009DED080B07F0E4FA8DED0A0B9DED0A0B6B
:1035C00051EC100B08F0ECFA80B21190BDF85410D9
:1035D000BDF85800081A0B90002801DB0B9801E099
:1035E0000B9840420F9013A84189C089081A0B908C
:1035F000002801DB0B9801E00B9840420E900F98D9
:1036000040430F900E9840430E90DDE90E100844A1
:10361000079008F009FBCDE908019DED080B07F0C4
:10362000AFFA8DED0A0B9DED0A0B51EC100B08F073
:10363000B7FA80B210909DED110AF8EE400A9DEDA8
:10364000100AB8EE400A80EE801A8DED0D1A9DED3D
:103650000D0ADFED580AB4EEE00AF1EE10FA0CD3D1
:103660009DED0D0ADFED540AB4EEE00AF1EE10FA1A
:1036700003DC119808B11098F0BB00201290474865
:103680004088143880B20B9044480088143880B2C7
:103690004FF6FF720A900B99FFF74BFB4FF47842FD
:1036A00014210846FFF745FB9DED0D0ADFED430AA7
:1036B00020EE200ABCEEC00A10EE100A80B29DED8A
:1036C0000D0ADFED3E0A20EE200ABCEEC00A10EE25
:1036D000101A89B213AAD289BDF85830CDE9023246
:1036E000CDE9041013A84089BDF85410CDE90010AD
:1036F00013A8C0880B9000E00DE0BDF850000A90C0
:10370000BDF84E000990BDF84C00089009A90EC9FB
:10371000FFF7C1FC75E3BDF84C00BDF85410401A2A
:103720000B90002801DB0B9801E00B9840420F90B2
:10373000BDF84E1013A84089081A0B90002801DB31
:103740000B9801E00B9840420E900F9840430F9069
:103750000E9840430E90DDE90E100844079008F0E3
:1037600063FACDE908019DED080B07F009FA8DED2C
:103770000A0B9DED0A0B51EC100B08F011FA80B208
:103780001190BDF85000BDF85810401A0B90002859
:1037900016DB0B9816E00000A00000202803002094
:1037A0009C0000209E000020E4000020000000009B
:1037B000000000003333733F6666863F0000C84256
:1037C0000B9840420F9013A8C188C089081A0B902B
:1037D000002801DB0B9801E00B9840420E900F98F7
:1037E00040430F900E9840430E90DDE90E100844C0
:1037F000079008F019FACDE908019DED080B07F0D4
:10380000BFF98DED0A0B9DED0A0B51EC100B08F082
:10381000C7F980B210909DED110AF8EE400A9DEDB7
:10382000100AB8EE400A80EE801A8DED0D1A9DED5B
:103830000D0A5FED200AB4EEE00AF1EE10FA08D3AB
:103840009DED0D0A5FED240AB4EEE00AF1EE10FAE8
:103850004BDD00201290FE484088143880B20B9057
:10386000FB480088143880B24FF6FF720A900B991B
:10387000FFF75FFA4FF4784214210846FFF759FA30
:103880009DED0D0A5FED330A20EE200ABCEEC00A62
:1038900010EE100A82B29DED0D0A5FED380A20EE9F
:1038A000200ABCEEC00A10EE100A80B213A9C98922
:1038B000BDF85830CDE90231CDE9040213A84089A2
:1038C000BDF85410CDE9001013A8C0880B90BDF8C6
:1038D00050000A90BDF84E000990BDF84C000890C9
:1038E00009A90EC9FFF7D7FB8BE2BDF85010BDF850
:1038F0005400081A0B90002801DB0B9801E00B988C
:1039000040420F9013A8C1884089081A0B900028E4
:1039100001DB0B9801E00B9840420E900F9840435A
:103920000F900E9840430E90DDE90E10084407906A
:1039300008F07AF9CDE908019DED080B07F020F9B0
:103940008DED0A0B9DED0A0B51EC100B08F028F9D8
:1039500080B21190BDF84C00BDF85810401A0B9081
:10396000002801DB0B9801E00B9840420F90BDF856
:103970004E1013A8C089081A0B90002801DB0B9881
:1039800001E00B9840420E900F9840430F900E9824
:1039900040430E90DDE90E100844079008F044F90A
:1039A000CDE908019DED080B07F0EAF88DED0A0B53
:1039B0009DED0A0B51EC100B08F0F2F880B210905C
:1039C0009DED110AF8EE400A9DED100AB8EE400A8E
:1039D00080EE801A8DED0D1A9DED0D0A5FED8B0ABC
:1039E000B4EEE00AF1EE10FA08D39DED0D0A5FED9A
:1039F0008E0AB4EEE00AF1EE10FA4BDD00201290D0
:103A000093484088143880B20B909148008814384D
:103A100080B24FF6FF720A900B99FFF78AF94FF4C4
:103A2000784214210846FFF784F99DED0D0A5FEDF9
:103A30009D0A20EE200ABCEEC00A10EE100A80B2E9
:103A40009DED0D0A5FEDA30A20EE200ABCEEC00A30
:103A500010EE101A89B213AAD289BDF85830CDE9F8
:103A60000232CDE9041013A84089BDF85410CDE905
:103A7000001013A8C0880B90BDF850000A90BDF844
:103A80004E000990BDF84C00089009A90EC9FFF737
:103A900002FBB6E1BDF85000BDF84C10401A00EE34
:103AA000100AF8EEC00A6A480088283800EE100AAA
:103AB000B8EEC01A81EE200A8DED0B0A0B9808F0C3
:103AC000F9FB644AC2E90A01BDF85000BDF84C1088
:103AD0000844019008F091F8CDE902015D4890EDAD
:103AE0000A0B8DED000B9DED000B53EC102B9DEDA3
:103AF000020B51EC100B08F0E7F8CDE90601544831
:103B00000088039008F090F8CDE904019DED060BC4
:103B100053EC102B9DED040B51EC100B08F0E0FA68
:103B20009FED4D0B53EC102BCDE908019DED080BDB
:103B300051EC100B07F070FECDE90A019DED0A0B68
:103B400051EC100B07F0FCFF00B24249088713A8A4
:103B50004089BDF84E10401A00EE100AF8EEC00A77
:103B60003B484088283800EE100AB8EEC01A81EEB3
:103B7000200A8DED0B0A0B9808F09CFB354AC2E930
:103B80000C0113A84089BDF84E100844019008F0BC
:103B900034F8CDE902012F4890ED0C0B8DED000BB0
:103BA0009DED000B53EC102B9DED020B51EC100B17
:103BB00008F08AF8CDE9060125484088039008F00E
:103BC00033F8CDE904019DED060B53EC102B9DED70
:103BD000040B51EC100B08F083FA9FED1F0B53EC14
:103BE000102BCDE908019DED080B51EC100B07F0EF
:103BF00013FECDE90A019DED0A0B51EC100B07F005
:103C00009FFF00B213494887084690ED0A0B8DEDDF
:103C1000080B9DED080B51EC100B07F091FF0A907B
:103C2000002801DB0A9801E00A98404202281BDCC8
:103C3000084890ED0C0B8DED080B9DED080B51EC39
:103C4000100B07F07DFF0B90002809DB0B9809E0B3
:103C500028030020A0000020000000000000004019
:103C60000B984042022843DD002012908B48408888
:103C7000143880B20B9089480088143880B24FF60F
:103C8000FF720A900B99FFF754F84FF47842142111
:103C90000846FFF74EF882A01021CDE900107F48BA
:103CA00040880B907D4800880A9002461A212820FF
:103CB0000B9BFEF78DFD7F4890F83C0008B9012072
:103CC00000E000207B4981F83C00084690F83C0069
:103CD00038B1902078490870D0217848017006E00A
:103CE0005BE0D0207449087090217448017088E02E
:103CF0001F20734908804FF6FF70FDF7E3FD71A0A8
:103D00001021CDE90010654840880B906348008879
:103D10000A9002466E2123200B9BFEF759FD9DED74
:103D20000D0ADFED6E0A20EE200ABCEEC00A10EE8E
:103D3000100A81B29DED0D0ADFED680A20EE200A1F
:103D4000BCEEC00A10EE100A82B213A8C089BDF8FA
:103D50005830CDE90230CDE9042113A84089BDF8DF
:103D60005410CDE9001013A8C0880B9000E015E0B6
:103D7000BDF850000A90BDF84E000990BDF84C0007
:103D8000089009A90EC9FFF786F94FF47A7000F080
:103D90004DFFFFF7D5F817B000BD00BF0A2000F0B7
:103DA00045FF4F480068401C4D49086008460068C0
:103DB00032281AD300214A4801604A48006808B9ED
:103DC000012000E00020474908604748D0F8A802D9
:103DD00008B9012000E000204249091D086043A005
:103DE00004F0A4FE48A004F0A1FE0C98401C80B290
:103DF0000C900C98B0F57A7F02DDFFF7F2F802E044
:103E000000BFFFF739BB00BF00BFC4E71CB50121ED
:103E1000262003F0FEF9012000908DF80400002018
:103E20008DF8060002208DF8050069463C4802F036
:103E300025FC01213A4802F09DFC4FF4005000900F
:103E40006946384802F01AFC4FF40051354802F038
:103E500091FC4FF4006000906946334802F00EFC7C
:103E60004FF40061304802F085FC062000900020ED
:103E70008DF8040001208DF807006946284802F0FB
:103E8000FDFB0C491631A1F10A00FEF7DFFE00F040
:103E90003DF9FFF7D0F901201CBD000028030020E8
:103EA0005450204E65656420726561646A75737450
:103EB00021000000A0000020E0000020E100002020
:103EC0009C000020546F7563682053637265656EB3
:103ED0002041646A757374204F4B21000000C84272
:103EE000E8000020A4824242008042420D0A53545E
:103EF0004D3332BFAAB7A2B0E520B4AEBFDACAB51F
:103F0000D1E90D0A000000006D63756465762E74BA
:103F1000616F62616F2E636F6D200D0A0D0A0000E4
:103F20000004024000080240001402401CB50121B8
:103F3000032003F025F90121084603F07BF9012253
:103F400008216F4802F025FC01220D216D4802F086
:103F500020FC01220E216B4802F01BFC01220921EA
:103F6000674802F016FC4FF40050009002208DF8D4
:103F7000040000208DF8060002208DF807008DF85F
:103F8000050069465F4802F079FB4FF480700090AD
:103F900069465B4802F072FB4FF40070009069467E
:103FA000574802F06BFB4FF480400090694655483B
:103FB00002F064FB1CBD10B58EB004460020ADF8C5
:103FC0002800ADF82A00601E0B900020ADF83000EC
:103FD00004208DF832000AA94B4803F078FF6020D6
:103FE000ADF814000120ADF816000420ADF818005B
:103FF0000020ADF82000ADF82200ADF82400ADF8A7
:10400000260005A9404803F0F7FF08213E4804F0C8
:1040100080F905A93C4804F028F808213A4804F042
:1040200081F90121384803F0BDFF4FF40060ADF87D
:1040300004004010ADF806008010ADF808001C2008
:10404000ADF80A000020ADF80C00ADF80E004FF4FA
:104050008040ADF8100001A92B4804F099FB012124
:10406000294804F0AEFB19208DF8340001208DF8AA
:10407000350000208DF8360001208DF837000DA89E
:1040800002F00BFA0121204804F0D6FB0122114670
:104090001D4804F0BDFB01211B4803F0A1FF0EB039
:1040A00010BD10B5FFF742FF4FF4D260FFF783FF5A
:1040B00010BD10B50121144804F083FB10BD10B5EC
:1040C0000021114804F07DFB4FF480710C4802F090
:1040D00053FB4FF400510B4802F04EFB10BD10B5DE
:1040E0000121094804F0ABFB012804D10121064855
:1040F00004F0B6FB03E00121034804F0B1FB10BD5E
:1041000000000240000402400000014010B500F031
:10411000BBF810BD70B50446002600F0D8F825465F
:10412000E11704EB11610912A02202EB4101C8B2B0
:1041300000F079F900F00CF9E11704EB11610912B4
:10414000A4EB0121C8B200F06EF900F001F900F013
:10415000BEF8A12000F067F900F0FAF8002000F0A6
:104160008FF9064600F0D5F8304670BD70B50446AC
:104170000E4600F0ACF82546E11704EB1161091278
:10418000A02202EB4101C8B200F04DF900F0E0F8C6
:10419000E11704EB11610912A4EB0121C8B200F090
:1041A00042F900F0D5F8304600F03DF900F0D0F8C3
:1041B00000F0AFF80A2000F039FD70BD2DE9F041A4
:1041C00005460E461746002409E0E20026FA02F2F0
:1041D000D1B22A1990B2FFF7C9FF601CC4B2BC4229
:1041E000F3DBBDE8F0812DE9F04107460C460026DF
:1041F000002509E036023919491B491E88B2FFF72C
:1042000089FF0644681CC5B2A542F3DB3046BDE811
:10421000F08110B5FF20FFF77DFF0446552C01D13A
:10422000002010BD5521FF20FFF7A0FFFF20FFF762
:1042300071FF0446552C01D10020F2E70120F0E780
:1042400070B506460C46154608E03046721C96B21C
:10425000FFF760FF04F8010B681E85B2002DF4D152
:1042600070BD70B505460C46164606E02178284616
:10427000FFF77CFF681C85B2641C3000A6F10101C9
:104280008EB2F3D170BD00001CB50121022002F0F6
:1042900077FF4FF44060009001208DF8040000206B
:1042A0008DF806008DF8070002208DF8050069469C
:1042B0008B4802F0E3F94FF44061894802F05AFA62
:1042C0000120884908608849C1F8A4021CBD10B5C6
:1042D0008348006820F4402081490860084600684F
:1042E00040F48020086001207E49091D08607E4955
:1042F000C1F8A002042000F051FC00207949091DFA
:104300000860042000F04AFC00207749C1F8A002B0
:1043100010BD10B57248006820F440207049086054
:104320000846006840F48020086000206D4908605D
:104330006D49C1F8A402042000F030FC0120694955
:1043400008606949C1F8A402042000F027FC10BDF0
:1043500010B500246248006820F4402060490860DD
:1043600008460068086001205E49091D086000F0E9
:1043700015FC01205C49C1F8A00200F00FFC07E029
:10438000601CC4B2FA2C03DDFFF7C3FF012010BD8F
:1043900054487C3800680028F2D15249086000BFB8
:1043A000F5E710B500204F4908604D48006820F43B
:1043B00040204B4908600846006840F480200860AF
:1043C00000204949C1F8A402022000F0E7FB0120C7
:1043D00044490860022000F0E1FB00204249C1F896
:1043E000A00210BD10B500203E4908603C4800689E
:1043F00020F440203A4908600846006840F48020D4
:10440000086001203849C1F8A402022000F0C6FB70
:10441000012034490860022000F0C0FB002032492E
:10442000C1F8A00210BD70B504462D48006820F404
:1044300040202B4908600846006840F4802008604E
:10444000002028490860002517E0E0092549091DDA
:1044500008606006040E022000F0A0FB0120224943
:10446000C1F8A002022000F099FB00201D4908605D
:10447000022000F093FB681CC5B2082DE5DB70BD7F
:1044800070B5054600241648006820F44020144901
:104490000860084600680860002616E00020114900
:1044A0000860022000F07AFB01200F49C1F8A00249
:1044B0006006040E0B487C38006808B1601CC4B26A
:1044C000012000F06BFB701CC6B2082EE6DB15B9AC
:1044D000FFF788FF01E0FFF764FF204670BD000092
:1044E00000040240A08240420080404200B58DB0EE
:1044F0000121084602F044FE0121080202F09AFE62
:1045000001200B9003208DF8300000208DF833003F
:104510000BA9434802F0B2F802200B900BA94048C7
:1045200002F0ACF804200B900BA93D4802F0A6F86D
:1045300008200B900BA93A4802F0A0F801210802CC
:1045400002F0CDFE00214FF4807002F0C8FE002082
:1045500007900A9009904FF48030089007A803F064
:1045600011FA002001908DF808008DF809000390E1
:10457000059001208DF8180001A92A4803F0D3F90D
:1045800001A9294803F0CFF90121264803F011FAC7
:104590000121254803F00DFA0DB000BD70B50446A9
:1045A0000D46002301222946204603F042FA204608
:1045B00003F09BFA00BF0221204603F0B7FB00285E
:1045C000F9D0204603F0CDFA70BD2DE9F05F8246A8
:1045D0008B4615460026B1464FF6FF7800270DE0C2
:1045E00059465046FFF7DAFF0446444500DAA04634
:1045F0004C4500DDA1462644781CC7B2AF42EFDB34
:10460000032D08DB08EB0900361AA81EB6FBF0F0F4
:1046100080B2BDE8F09FB6FBF5F080B2F9E700008C
:104620000000024000200140002101401CB5012192
:10463000102002F0A5FD0420009000208DF8040059
:1046400003208DF8050002208DF8070069464E48CA
:1046500002F014F80820009069464B4802F00EF86A
:104660001CBD70B52DED088B1E2202214748FFF7B7
:10467000ACFF0446204607F0D7FA41EC1B0B9FED38
:10468000440B53EC102B07F0C7F841EC1A0B9FEDCD
:10469000420B53EC102B07F017FB41EC190B9FED6D
:1046A000400B53EC102B07F0B7F841EC180BB0EEB1
:1046B000480AF0EE680AFEF715F9054629463A4819
:1046C0000068083004F00FFB01203849087008200A
:1046D00004F021FABDEC088B70BD10B534480068B9
:1046E00008B9012000E0002031490860042004F0EE
:1046F00012FA10BD0EB5FFF799FF0121880302F0F1
:1047000099FD0221042002F0A0FE0321042002F002
:104710009CFE0420009000208DF8040008208DF8F5
:10472000050001208DF80600684604F083F9082092
:10473000009000208DF8040008208DF8050000206E
:104740008DF80600684604F075F908208DF8080019
:1047500000208DF8090002208DF80A0001208DF854
:104760000B0002A801F099FE09208DF80800002036
:104770008DF8090002208DF80A0001208DF80B0049
:1047800002A801F08AFE0EBD001002400020014088
:10479000000000000000B0400000000000000440E5
:1047A000000000000000E03F540000206A000020EC
:1047B000A48242421FB504460121022002F029FDD5
:1047C000601E02900020ADF80400ADF80600ADF8C0
:1047D0000C008DF80E0001A9B94803F078FB012206
:1047E0001146B74804F014F80121B54803F0F8FB6E
:1047F0001D208DF8000001208DF8010003208DF8A8
:10480000020001208DF80300684601F046FE1FBD3E
:1048100070B52DED088B0121A94804F010F801288E
:104820007ED1A848007800287BD01E220121A6480E
:10483000FFF7CBFE0646304607F0F6F941EC1B0BBE
:104840009FEDA20B53EC102B06F0E6FF41EC1A0B88
:104850009FEDA00B53EC102B07F036FA41EC190B2F
:104860009FED9E0B53EC102B07F02EFA41EC180B2A
:104870009FED9C0B53EC102B06F012FF9B4A03C2DA
:104880009B480078012810D1984890ED000B51EC1E
:10489000100B06F0D3FE08EE100A96489649D1EDAB
:1048A000000AB0EE480A01F05DFD1E220021864894
:1048B000FFF78BFE0646304607F0B6F941EC1B0BBE
:1048C0009FED820B53EC102B06F0A6FF41EC1A0B68
:1048D0009FED800B53EC102B07F0F6F941EC190B10
:1048E0009FED860B53EC102B07F0EEF941EC180B03
:1048F0009FED840B53EC102B06F0D2FE834A03C2CB
:104900001E2203217048FFF760FE0646304607F07E
:104910008BF941EC1B0B9FED6D0B53EC102B01E061
:10492000C7E032E006F078FF41EC1A0B9FED690B0F
:1049300053EC102B07F0C8F941EC190B9FED740BE9
:1049400053EC102B07F0C0F941EC180B9FED720BE4
:1049500053EC102B07F0C4FB714A03C29FED710B9F
:1049600053EC102B6E4890ED000B51EC100B07F040
:10497000A9FA2CD200206D490880524908709FED99
:104980006C0A5C4880ED000A21E068480088401C01
:10499000664908809FED670B544880ED000B9FED42
:1049A000650B5A4880ED000B9FED620B5C4880ED73
:1049B000000B0846008842F21071884207DD012092
:1049C000404908709FED5A0A5C4880ED000A5C4837
:1049D0000088401C5A49088008460088B0F5FA6FE4
:1049E0004EDD00200880414890ED000BFDF77AFF76
:1049F0000446214653480068083004F074F94848DA
:104A000090ED000BFDF76EFF044621464E4800680E
:104A1000083004F068F93D4890ED000BFDF762FFA7
:104A20000446214649480068083004F05CF93148E2
:104A3000006807F03FFC41EC1A0B9FED450B53EC6F
:104A4000102B07F041F941EC190BB0EE490AF0EEDA
:104A5000690AFDF77AFF044607F0E6F841EC180B07
:104A6000B0EE480AF0EE680AFDF73CFF054629461D
:104A700039480068083004F036F9012037490870D9
:104A80001C4890ED000ADFED360A20EE200A10EEF9
:104A9000101A084607F00EFC41EC180BB0EE480A5D
:104AA000F0EE680AFDF751FF044621462D4803F059
:104AB000FCFB0121024803F0D3FEBDEC088B70BD66
:104AC000000400406C0000200020014000000000B5
:104AD0000000B040F4FDD478E9260A40A167B3EAAB
:104AE00073B50A40AAF1D24D62503C401801002033
:104AF0006800002070000020780000205DDC460384
:104B0000780B0B40E7FBA9F1D20D304020010020CB
:104B100055C1A8A44E40FC3F107A36AB3ED70140A9
:104B20002801002039B4C876BE9FF83FF800002065
:104B30000000000000000000000000004001002014
:104B400010010020500000205400002058000020D8
:104B500000000000000059405C0000206A000020B6
:104B60000000D2440000014010B504466FF004007C
:104B700001F0E0FCE11704EB5171C1F3C701394AC0
:104B800011701046007800EB4001C1EBC0104FF6E9
:104B9000FF7101EAC0003449088010BD0146314A66
:104BA00012784A434FF0E0235A6100229A611A4674
:104BB000126942F001021A6100BF4FF0E022106951
:104BC00000F001021AB100F48032002AF5D04FF053
:104BD000E022126922F001024FF0E0231A61002264
:104BE0009A6170470146204A12884A434FF0E023F9
:104BF0005A6100229A611A46126942F001021A6152
:104C000000BF4FF0E022106900F001021AB100F479
:104C10008032002AF5D04FF0E022126922F0010222
:104C20004FF0E0231A6100229A61704770B5044684
:104C30004FF4077094FBF0F0C6B24FF4077094FB8A
:104C4000F0F100FB114085B205E04FF40770FFF76B
:104C5000C9FF701EC6B2002EF7D115B12846FFF766
:104C6000C1FF70BD3001002032010020014600BFAD
:104C7000704700BF4C4A128802F04002002AF9D067
:104C8000C2B2494B9A80704710B588B004460121E2
:104C9000084602F075FA0121102002F0CBFA072233
:104CA0000921424801F075FD07220A213F4801F021
:104CB00070FD4FF4C060069002208DF81C008DF846
:104CC0001D0000208DF81E0001208DF81F0006A990
:104CD000364801F0D3FC02940020ADF80C00ADF88A
:104CE0000E00ADF81000ADF814000C20ADF8120065
:104CF00002A92D4802F049FC01212B4802F0CDFC0D
:104D0000012240F22551284802F07DFD25208DF832
:104D1000040003208DF805008DF8060001208DF8B1
:104D2000070001A801F0B9FB08B010BD10B540F2B2
:104D300025511D4802F0A2FD10B31B4802F0DCFC17
:104D4000C4B21B48008800F40040C8B91848008865
:104D500000F4804060B10A2C03D000201449088080
:104D600020E01348008840F400401149088019E011
:104D70000D2C06D10E48008840F480400C49088074
:104D800010E00B480088C0F30D000A490C54084895
:104D90000088401C0649088008460088C72801DDB5
:104DA0000020088010BD00000010014000000240FB
:104DB000380100206303002010B52DED028BFE4862
:104DC00000680830FDF7BBFDB0EE408AF0EE608A67
:104DD0009FEDFA0B53EC102B51EC180B07F072F807
:104DE00012D29FEDF60BB0EE408AF0EE608AB0EE84
:104DF000480AF0EE680AFDF775FD04462146EE48C4
:104E00000068083003F06FFF9FEDEE0B53EC102BA2
:104E100051EC180B06F01CFF12D29FEDEA0BB0EE1E
:104E2000408AF0EE608AB0EE480AF0EE680AFDF7BC
:104E300059FD04462146E0480068083003F053FF5E
:104E4000BDEC028B10BD10B52DED028BDA48006869
:104E50000830FDF774FDB0EE408AF0EE608A9FEDF9
:104E6000DB0B53EC102B51EC180B07F02BF812D284
:104E70009FEDD60BB0EE408AF0EE608AB0EE480AA5
:104E8000F0EE680AFDF72EFD04462146CA48006888
:104E9000083003F028FF9FEDCF0B53EC102B51ECA3
:104EA000180B06F0D5FE12D29FEDCA0BB0EE408A69
:104EB000F0EE608AB0EE480AF0EE680AFDF712FDE7
:104EC00004462146BC480068083003F00CFFBDECE6
:104ED000028B10BD01B592B000201190D6E111985F
:104EE00000EB800101EBC000BC4901EB800112988E
:104EF00081427DD1119800EB800101EBC000B749E0
:104F000001EB800090F83100002871D0119800EB7F
:104F1000800101EBC000B14901EB8000808B109053
:104F2000119800EB800101EBC000AC4901EB80005F
:104F3000C08B0F90119800EB800101EBC000A749D6
:104F400001EB8000008D0E90119800EB800101EBC9
:104F5000C000A24901EB8000408D0D90119800EB3C
:104F6000800101EBC0009D4901EB8000808C0C901A
:104F7000119800EB800101EBC000984901EB800023
:104F8000C08C0B90119800EB800101EBC00093499D
:104F900001EB8000008C0A90119800EB800101EB7E
:104FA000C0008E4901EB8000408C0990119800EB05
:104FB000800101EBC000894901EB8000007E089070
:104FC0001C210A220023089800EB80004000CDE954
:104FD00002320491019082480090DDE90D32DDE952
:104FE0000F10FDF701F91C21089800EB800000E08C
:104FF00048E140007A4ACDE900200291DDE90B3218
:10500000DDE90F10FDF7A2F81C21089800EB8000E5
:105010004000C01D724ACDE9002002910E991098FF
:1050200001440C98081A80B20790DDE90B320F9901
:10503000FDF78CF82721089800EB80004000684AB3
:10504000CDE9002002910D990F9801440B98081AA0
:1050500080B207900146DDE90B321098FDF776F833
:105060002721089800EB80004000C01D5C4ACDE974
:10507000002002910D990F9801440B98081A80B2F4
:1050800007900E99109801440C98081A80B2069067
:10509000DDE90B320799FDF759F8022104221C23A0
:1050A000089800EB80004000C01CCDE9023204915A
:1050B00001904B48009002220C990E9802FB1100BF
:1050C00080B207901098084480B20690099B079A16
:1050D0000F99FDF789F8082102221F23089800EB99
:1050E00080004000CDE90232049101903C480090DC
:1050F0000B990D9802FB110080B207900F9808449D
:1051000080B206900146079B0A9A1098FDF76CF84A
:10511000082102221F23089800EB8000400008307D
:10512000CDE90232049101902D4800900B990D9821
:1051300002FB110080B207900F98084480B20690DD
:105140000E99109801440A98081A80B20590DDE97A
:1051500006130A9AFDF748F802210422282308982A
:1051600000EB80004000C01CCDE9023204910190A8
:105170001B48009002220C990E9802FB110080B28D
:1051800007900D990F9801440998081A80B206906B
:105190000C991098084480B20590099BDDE906122D
:1051A000FDF722F8119800EB800101EBC0000B49DC
:1051B00001EB8000008B15E0600000200000000083
:1051C000000043400000000000003D4000000000DF
:1051D0000000544000000000000000002C040020EB
:1051E00076DF000818B90020FE49088003E04FF47C
:1051F0007840FC490880119800EB800101EBC00069
:10520000F94901EB8000001D039003F090FD00EBD5
:105210008000143080B20590119800EB800101EB02
:10522000C000F14901EB8000001D039003F07FFDF9
:1052300000EB40010E98069000EBD07042101098E1
:105240001044401A80B20490119800EB800101EBE9
:10525000C000E54901EB8000001D0C21CDE90010E4
:105260000D98079000EBD07041100F980844801FF4
:1052700080B21E2303900146DDE90402FDF7A8FA7F
:1052800013B000BD1198401C80B2119011982828CD
:10529000FFF625AE0020119030E11198C0EBC00060
:1052A000D24901EB8001129881427DD11198C0EB67
:1052B000C000CE4901EB8000007E002874D0119818
:1052C000C0EBC00001EB8000408810901198C0EB4B
:1052D000C00001EB800080880F901198C0EBC000E7
:1052E00001EB8000C0880E901198C0EBC00001EB6C
:1052F000800000890D904FF6FF700090DDE90D32BF
:10530000DDE90F10FCF7FFFD9C2211461046FBF76C
:1053100041FC06900D98001F079000EBD0704110E3
:105320000F98084480B205901098801C80B20490B9
:10533000DDE90512FBF7E9FFB02211461046FBF745
:1053400029FCA84908800D98001F079000EBD07039
:1053500041100F98084480B205900D98001F0690E8
:1053600000EBD07041100F98084480B203900E9962
:1053700010980844C01E80B204901098C01C80B2DF
:10538000029003A90EC9FCF711FEB0221146104687
:10539000FBF700FC06900D98001F079000EBD07003
:1053A00041100F98084400E0A4E0401C80B2059032
:1053B0001098801C80B20490DDE90512FBF7A5FF70
:1053C000B02211461046FBF7E5FB06900D98001F32
:1053D000079000EBD07041100F980844801C80B2F9
:1053E00005901098801C80B20490DDE90512FBF74F
:1053F0008CFFFC2211461046FBF7CCFB7949088054
:105400000D98001F079000EBD07041100F980844D2
:10541000C01C80B205900D98001F069000EBD07064
:1054200041100F980844C01C80B203900E99109848
:105430000844C01E80B204901098C01C80B2029034
:1054400003A90EC9FCF7B2FDEA221146E720FBF7DB
:10545000A1FB06900D98001F079000EBD070411043
:105460000F980844401C80B205900E99109808448B
:10547000C01E80B20490DDE90512FBF746FFEA2268
:105480001146E720FBF786FB06900D98001F07905A
:1054900000EBD07041100F980844801C80B205903A
:1054A0000E9910980844C01E80B20490DDE90512E0
:1054B000FBF72BFFEA221146E720FBF76BFB069078
:1054C00000900D98001F079000EBD07041100F98CE
:1054D0000844401C80B204900E98801F80B2059052
:1054E0001098C01C80B202230390DDE90412FCF77F
:1054F0000AFDC5E61198401C80B2119011980A2847
:10550000FFF6CBAE00201190E9E01198C0EB4010FF
:10551000374901EB4001129881426BD11198C0EBE1
:105520004011334800EB410090F83A00002861D068
:1055300047F28E302B4908801198C0EB40102C495F
:1055400031F8100010901198C0EB401001EB4000B2
:1055500040880F901198C0EB401001EB400080880C
:105560000E901198C0EB401001EB4000C0880D90E8
:105570004FF6FF700090DDE90D32DDE90F10FCF70A
:10558000C2FC0E9910980844401E80B20790024653
:105590000F9B19461098FCF709FD0D990F980844C8
:1055A000401E80B207900E9910980844401E80B2A9
:1055B00006900D990F980844401E80B20590014650
:1055C000DDE906231098FCF7F1FC0D990F980844CB
:1055D000401E80B203460790DDE90F121046FCF72B
:1055E000E5FC08E09C0000202C040020940F002023
:1055F000AC1000206FE00D990F980844401E80B257
:1056000007900E9910980844401E80B2069010989A
:105610000844401E80B20590DDE906230F99FCF78F
:10562000C5FC1198C0EB4010FE4901EB400008306A
:105630000390FDF784F98DED040B0D981E3807904B
:1056400000EBD07041100F98084480B203909DED9C
:10565000040B01461098FDF7DDF91198C0EB4010DE
:10566000F04901EB400090F83B00A0B30020EE4968
:1056700008801198C0EB4010EA4901EB4000083067
:10568000059003F054FB01461098C01D0F2202FB49
:10569000010080B207901198C0EB4010E14901EB86
:1056A00040000830059003F042FB01461098C01DF1
:1056B0000F2202FB010080B206900F98233080B2C7
:1056C00005900F98401D80B204900146DDE9053039
:1056D000079AFCF76BFC1198401C80B2119011984E
:1056E0000A28FFF612AF00BFCAE52DE9F05F804639
:1056F0000D4616461F46DDE90A9A002468E004EBD1
:10570000840000EBC400C94901EB800040455DD135
:1057100004EB840000EBC40001EB800090F8310042
:10572000002853D00AF0010010BB04EB840000EB0A
:10573000C40001EB8000808BA84208D104EB8400F8
:1057400000EBC40001EB8000C08BB04201D04FF0F1
:10575000010B04EB840000EBC400B44901EB8000B2
:10576000858304EB840000EBC40001EB8000C6835A
:105770000AF0020020BB04EB840000EBC400AB493C
:1057800001EB8000008DB84208D104EB840000EBEF
:10579000C40001EB8000408D484501D04FF0010B63
:1057A00004EB840000EBC400A04901EB80000785F6
:1057B00004EB840000EBC40001EB8000A0F82A9009
:1057C000BBF1000F02D04046FFF784FB601C84B29F
:1057D000282C94DBBDE8F09F7CB504460D4665811E
:1057E0002046FFF777FBE088203861894843A1898C
:1057F000B0FBF1F0618808440A3086B20220002133
:10580000CDE90010A188891C8AB200233146606965
:10581000FFF76BFF6069FFF75DFB2388628910214A
:10582000204600F00DF97CBD10B504460020E0854F
:1058300020832046FFF74EFB10BD70B504460D4691
:105840000120E08525832046FFF744FB70BD00233F
:10585000C3810382437670477CB504460D461646E5
:10586000607E002840D0E089291A60880A30814291
:1058700003DA60880A30E18945186088E1880844C5
:105880001638E189691A884205DA6088E188084497
:105890001638E1894518E089281A6169898B8842A0
:1058A00002D02046FFF716FB02200021CDE90010B0
:1058B000A3889B1C9AB2E389EB1A99B20023606912
:1058C000FFF713FFE089281A6188401A0A38A18976
:1058D0004843E188203990FBF1F060812388628998
:1058E0001021204600F0ACF87CBD10B543888B42F7
:1058F0001CDC8388934219DC4388C48823445B1EE4
:105900008B4213DB8388048923445B1E93420DDBA7
:1059100043691B8B012B09D143699B8BCB1AC38134
:105920004369DB8BD31A03820123437610BD2DE933
:10593000F04104460D461646277EA08BA8421BDC8C
:10594000E08BB04218DCA08B218D0844401EA84299
:1059500012DBE08B618D0844401EB0420CDB94F8F2
:10596000300030B1628B00234FF48051204600F0AC
:1059700067F8002084F83000E08D08B9002020830B
:1059800017B12046FFF7A6FABDE8F0812DE9F041F6
:1059900004460D461646277EA08BA84216DCE08BF7
:1059A000B04213DCA08B218D0844401EA8420DDBC1
:1059B000E08B618D0844401EB04207DB94F8300054
:1059C00070B1E08D60B90120208309E0208B0128AF
:1059D00006D194F8300018B1E08D08B90220208378
:1059E000208BB84202D02046FFF774FABDE8F08160
:1059F00070B504460D461646A08BA8421FDCE08B0E
:105A0000B0421CDCA08B218D0844401EA84216DB4E
:105A1000E08B618D0844401EB04210DBE08D40B940
:105A2000012005E0AC1000209C0000202C04002088
:105A30002083012084F830002046FFF74BFA70BD28
:105A40002DE9F0472DED048B81460D4616461F4685
:105A500005F00300002870D0002437E004EB840038
:105A600000EBC400FE4901EB800090F8310058B310
:105A7000012D04D0022D1AD0032D24D10BE004EB0C
:105A8000840101EBC401F64A02EB81003A4631463B
:105A9000FFF7AEFF17E004EB840101EBC401F04A0D
:105AA00002EB81003A463146FFF770FF0BE004EB52
:105AB000840101EBC401EA4A02EB81003A46314617
:105AC000FFF735FF00BF00BF601C84B2282CC5DB88
:105AD00000242EE0C4EBC400E24901EB8000007E0C
